{
  "contractName": "TodoList",
  "abi": [
    {
      "inputs": [],
      "payable": false,
      "stateMutability": "nonpayable",
      "type": "constructor"
    },
    {
      "anonymous": false,
      "inputs": [
        {
          "indexed": false,
          "internalType": "uint256",
          "name": "id",
          "type": "uint256"
        },
        {
          "indexed": false,
          "internalType": "string",
          "name": "content",
          "type": "string"
        },
        {
          "indexed": false,
          "internalType": "bool",
          "name": "completed",
          "type": "bool"
        }
      ],
      "name": "Toggled",
      "type": "event"
    },
    {
      "anonymous": false,
      "inputs": [
        {
          "indexed": false,
          "internalType": "uint256",
          "name": "id",
          "type": "uint256"
        },
        {
          "indexed": false,
          "internalType": "string",
          "name": "content",
          "type": "string"
        },
        {
          "indexed": false,
          "internalType": "bool",
          "name": "completed",
          "type": "bool"
        }
      ],
      "name": "Toggling",
      "type": "event"
    },
    {
      "constant": true,
      "inputs": [
        {
          "internalType": "uint256",
          "name": "",
          "type": "uint256"
        }
      ],
      "name": "availableTaskIds",
      "outputs": [
        {
          "internalType": "uint256",
          "name": "",
          "type": "uint256"
        }
      ],
      "payable": false,
      "stateMutability": "view",
      "type": "function"
    },
    {
      "constant": true,
      "inputs": [],
      "name": "taskCount",
      "outputs": [
        {
          "internalType": "uint256",
          "name": "",
          "type": "uint256"
        }
      ],
      "payable": false,
      "stateMutability": "view",
      "type": "function"
    },
    {
      "constant": true,
      "inputs": [
        {
          "internalType": "uint256",
          "name": "",
          "type": "uint256"
        }
      ],
      "name": "tasks",
      "outputs": [
        {
          "internalType": "uint256",
          "name": "id",
          "type": "uint256"
        },
        {
          "internalType": "string",
          "name": "content",
          "type": "string"
        },
        {
          "internalType": "bool",
          "name": "completed",
          "type": "bool"
        }
      ],
      "payable": false,
      "stateMutability": "view",
      "type": "function"
    },
    {
      "constant": false,
      "inputs": [
        {
          "internalType": "string",
          "name": "_content",
          "type": "string"
        }
      ],
      "name": "addTask",
      "outputs": [
        {
          "internalType": "bool",
          "name": "",
          "type": "bool"
        }
      ],
      "payable": false,
      "stateMutability": "nonpayable",
      "type": "function"
    },
    {
      "constant": false,
      "inputs": [
        {
          "internalType": "uint256",
          "name": "_id",
          "type": "uint256"
        }
      ],
      "name": "removeTask",
      "outputs": [
        {
          "internalType": "bool",
          "name": "",
          "type": "bool"
        }
      ],
      "payable": false,
      "stateMutability": "nonpayable",
      "type": "function"
    },
    {
      "constant": false,
      "inputs": [
        {
          "internalType": "uint256",
          "name": "_id",
          "type": "uint256"
        }
      ],
      "name": "markComplete",
      "outputs": [
        {
          "internalType": "bool",
          "name": "",
          "type": "bool"
        }
      ],
      "payable": false,
      "stateMutability": "nonpayable",
      "type": "function"
    },
    {
      "constant": true,
      "inputs": [],
      "name": "getTaskIds",
      "outputs": [
        {
          "internalType": "uint256[]",
          "name": "",
          "type": "uint256[]"
        }
      ],
      "payable": false,
      "stateMutability": "view",
      "type": "function"
    }
  ],
  "bytecode": "0x60806040526000805534801561001457600080fd5b506100596040518060400160405280601981526020017f4465706c6f792074686520536d61727420436f6e74726163740000000000000081525061005f60201b60201c565b506101cc565b60008060008154809291906001019190505550604051806060016040528060005481526020018381526020016000151581525060026000805481526020019081526020016000206000820151816000015560208201518160010190805190602001906100cc929190610127565b5060408201518160020160006101000a81548160ff0219169083151502179055509050506001600054908060018154018082558091505090600182039060005260206000200160009091929091909150555060019050919050565b828054600181600116156101000203166002900490600052602060002090601f016020900481019282601f1061016857805160ff1916838001178555610196565b82800160010185558215610196579182015b8281111561019557825182559160200191906001019061017a565b5b5090506101a391906101a7565b5090565b6101c991905b808211156101c55760008160009055506001016101ad565b5090565b90565b610bdf806101db6000396000f3fe608060405234801561001057600080fd5b506004361061007d5760003560e01c80638d9776721161005b5780638d977672146101dd578063b6cb58a514610296578063bcd14805146102b4578063c3084117146103135761007d565b8063400f05d91461008257806367067ed6146100c4578063672385621461010a575b600080fd5b6100ae6004803603602081101561009857600080fd5b8101908080359060200190929190505050610359565b6040518082815260200191505060405180910390f35b6100f0600480360360208110156100da57600080fd5b810190808035906020019092919050505061037a565b604051808215151515815260200191505060405180910390f35b6101c36004803603602081101561012057600080fd5b810190808035906020019064010000000081111561013d57600080fd5b82018360208201111561014f57600080fd5b8035906020019184600183028401116401000000008311171561017157600080fd5b91908080601f016020809104026020016040519081016040528093929190818152602001838380828437600081840152601f19601f8201169050808301925050505050505091929192905050506105a9565b604051808215151515815260200191505060405180910390f35b610209600480360360208110156101f357600080fd5b8101908080359060200190929190505050610671565b604051808481526020018060200183151515158152602001828103825284818151815260200191508051906020019080838360005b8381101561025957808201518184015260208101905061023e565b50505050905090810190601f1680156102865780820380516001836020036101000a031916815260200191505b5094505050505060405180910390f35b61029e610740565b6040518082815260200191505060405180910390f35b6102bc610746565b6040518080602001828103825283818151815260200191508051906020019060200280838360005b838110156102ff5780820151818401526020810190506102e4565b505050509050019250505060405180910390f35b61033f6004803603602081101561032957600080fd5b8101908080359060200190929190505050610853565b604051808215151515815260200191505060405180910390f35b6001818154811061036657fe5b906000526020600020016000915090505481565b60006103858261091a565b156105a35760006002600084815260200190815260200160002090507faeae189316b2319342bb7a6b41ac53db78ee35b56b2afa944f111ba0ba1735ea8160000154826001018360020160009054906101000a900460ff166040518084815260200180602001831515151581526020018281038252848181546001816001161561010002031660029004815260200191508054600181600116156101000203166002900480156104765780601f1061044b57610100808354040283529160200191610476565b820191906000526020600020905b81548152906001019060200180831161045957829003601f168201915b505094505050505060405180910390a18060020160009054906101000a900460ff16158160020160006101000a81548160ff0219169083151502179055507f7a17aee38ea9fb6d7d8e5209babc7a27d51ca1c563b15fcded962cb4d37f28498160000154826001018360020160009054906101000a900460ff166040518084815260200180602001831515151581526020018281038252848181546001816001161561010002031660029004815260200191508054600181600116156101000203166002900480156105895780601f1061055e57610100808354040283529160200191610589565b820191906000526020600020905b81548152906001019060200180831161056c57829003601f168201915b505094505050505060405180910390a160019150506105a4565b5b919050565b6000806000815480929190600101919050555060405180606001604052806000548152602001838152602001600015158152506002600080548152602001908152602001600020600082015181600001556020820151816001019080519060200190610616929190610a9a565b5060408201518160020160006101000a81548160ff0219169083151502179055509050506001600054908060018154018082558091505090600182039060005260206000200160009091929091909150555060019050919050565b6002602052806000526040600020600091509050806000015490806001018054600181600116156101000203166002900480601f0160208091040260200160405190810160405280929190818152602001828054600181600116156101000203166002900480156107235780601f106106f857610100808354040283529160200191610723565b820191906000526020600020905b81548152906001019060200180831161070657829003601f168201915b5050505050908060020160009054906101000a900460ff16905083565b60005481565b6060600080905060008090505b6001805490508110156107965760006001828154811061076f57fe5b906000526020600020015411156107895781806001019250505b8080600101915050610753565b506060816040519080825280602002602001820160405280156107c85781602001602082028038833980820191505090505b509050600080905060008090505b600180549050811015610849576000600182815481106107f257fe5b9060005260206000200154111561083c576001818154811061081057fe5b906000526020600020015483838151811061082757fe5b60200260200101818152505081806001019250505b80806001019150506107d6565b5081935050505090565b600061085e8261091a565b15610910576002600083815260200190815260200160002060008082016000905560018201600061088f9190610b1a565b6002820160006101000a81549060ff0219169055505060008090505b6001805490508110156109065782600182815481106108c657fe5b906000526020600020015414156108f9576000600182815481106108e657fe5b9060005260206000200181905550610906565b80806001019150506108ab565b5060019050610915565b600090505b919050565b6000610924610b62565b6002600084815260200190815260200160002060405180606001604052908160008201548152602001600182018054600181600116156101000203166002900480601f0160208091040260200160405190810160405280929190818152602001828054600181600116156101000203166002900480156109e55780601f106109ba576101008083540402835291602001916109e5565b820191906000526020600020905b8154815290600101906020018083116109c857829003601f168201915b505050505081526020016002820160009054906101000a900460ff1615151515815250509050600083118015610a1e5750828160000151145b610a90576040517f08c379a00000000000000000000000000000000000000000000000000000000081526004018080602001828103825260138152602001807f5461736b20446f6573206e6f742065786973740000000000000000000000000081525060200191505060405180910390fd5b6001915050919050565b828054600181600116156101000203166002900490600052602060002090601f016020900481019282601f10610adb57805160ff1916838001178555610b09565b82800160010185558215610b09579182015b82811115610b08578251825591602001919060010190610aed565b5b509050610b169190610b85565b5090565b50805460018160011615610100020316600290046000825580601f10610b405750610b5f565b601f016020900490600052602060002090810190610b5e9190610b85565b5b50565b604051806060016040528060008152602001606081526020016000151581525090565b610ba791905b80821115610ba3576000816000905550600101610b8b565b5090565b9056fea265627a7a7231582045ea1a5a630f5126667a5b1027569a8a1eadd2602ded498fba3618dde6b72e0264736f6c63430005100032",
  "source": "// SPDX-License-Identifier: MIT\npragma solidity 0.5.16;\n\n// Todo: When redusing count the data gets invalidated\ncontract TodoList {\n    uint public taskCount = 0;\n    uint[] public availableTaskIds;\n    mapping(uint => Task) public tasks;\n\n    struct Task {\n        uint id;\n        string content;\n        bool completed;\n    }\n\n    event Toggling(uint id, string content, bool completed);\n    event Toggled(uint id, string content, bool completed);\n\n    constructor() public {\n        addTask(\"Deploy the Smart Contract\");\n    }\n\n    function addTask(string memory _content) public returns (bool) {\n        taskCount++;\n        tasks[taskCount] = Task(taskCount, _content, false);\n        availableTaskIds.push(taskCount);\n        return true;\n    }\n\n    function removeTask(uint _id) public returns (bool) {\n        if (taskExists(_id)) {\n            delete tasks[_id];\n            for (uint i = 0; i < availableTaskIds.length; i++) {\n                if (availableTaskIds[i] == _id) {\n                    availableTaskIds[i] = 0;\n                    break;\n                }\n            }\n            return true;\n        }\n        return false;\n    }\n\n    function markComplete(uint _id) public returns (bool) {\n        if (taskExists(_id)) {\n            Task storage task = tasks[_id];\n            emit Toggling(task.id, task.content, task.completed);\n            task.completed = !task.completed;\n            emit Toggled(task.id, task.content, task.completed);\n\n            return true;\n        }\n    }\n\n    function taskExists(uint _id) private view returns (bool) {\n        Task memory task = tasks[_id];\n        require(_id > 0 && task.id == _id, \"Task Does not exist\");\n\n        return true;\n    }\n\n    function getTaskIds() public view returns (uint[] memory) {\n        uint availableTaskLength = 0;\n        for (uint i = 0; i < availableTaskIds.length; i++) {\n            if (availableTaskIds[i] > 0) {\n                availableTaskLength++;\n            }\n        }\n\n        uint[] memory ids = new uint[](availableTaskLength);\n        uint index = 0;\n        for (uint i = 0; i < availableTaskIds.length; i++) {\n            if (availableTaskIds[i] > 0) {\n                ids[index] = availableTaskIds[i];\n                index++;\n            }\n        }\n\n        return ids;\n\n        // uint counter = 0;\n        // uint i = 1;\n        // Task memory task;\n        // while (counter < taskCount) {\n        //     task = tasks[i];\n        //     if (task.id == i) {\n        //         ids[counter] = task.id;\n        //         counter++;\n        //     }\n        //     i++;\n        // }\n    }\n}\n",
  "sourcePath": "/Users/akshay/Developer/dapp_todo/todo_smart_contract/contracts/TodoList.sol",
  "compiler": {
    "name": "solc",
    "version": "0.5.16+commit.9c3226ce.Emscripten.clang"
  },
  "schemaVersion": "3.4.16",
  "updatedAt": "2024-05-23T15:20:58.186Z",
  "networkType": "ethereum",
  "devdoc": {
    "methods": {}
  },
  "userdoc": {
    "methods": {}
  }
}