{
  "contractName": "TodoList",
  "abi": [
    {
      "inputs": [],
      "payable": false,
      "stateMutability": "nonpayable",
      "type": "constructor"
    },
    {
      "anonymous": false,
      "inputs": [
        {
          "indexed": false,
          "internalType": "uint256",
          "name": "id",
          "type": "uint256"
        },
        {
          "indexed": false,
          "internalType": "string",
          "name": "content",
          "type": "string"
        },
        {
          "indexed": false,
          "internalType": "bool",
          "name": "completed",
          "type": "bool"
        }
      ],
      "name": "Toggled",
      "type": "event"
    },
    {
      "anonymous": false,
      "inputs": [
        {
          "indexed": false,
          "internalType": "uint256",
          "name": "id",
          "type": "uint256"
        },
        {
          "indexed": false,
          "internalType": "string",
          "name": "content",
          "type": "string"
        },
        {
          "indexed": false,
          "internalType": "bool",
          "name": "completed",
          "type": "bool"
        }
      ],
      "name": "Toggling",
      "type": "event"
    },
    {
      "constant": true,
      "inputs": [],
      "name": "taskCount",
      "outputs": [
        {
          "internalType": "uint256",
          "name": "",
          "type": "uint256"
        }
      ],
      "payable": false,
      "stateMutability": "view",
      "type": "function"
    },
    {
      "constant": true,
      "inputs": [
        {
          "internalType": "uint256",
          "name": "",
          "type": "uint256"
        }
      ],
      "name": "tasks",
      "outputs": [
        {
          "internalType": "uint256",
          "name": "id",
          "type": "uint256"
        },
        {
          "internalType": "string",
          "name": "content",
          "type": "string"
        },
        {
          "internalType": "bool",
          "name": "completed",
          "type": "bool"
        }
      ],
      "payable": false,
      "stateMutability": "view",
      "type": "function"
    },
    {
      "constant": false,
      "inputs": [
        {
          "internalType": "string",
          "name": "_content",
          "type": "string"
        }
      ],
      "name": "addTask",
      "outputs": [
        {
          "internalType": "bool",
          "name": "",
          "type": "bool"
        }
      ],
      "payable": false,
      "stateMutability": "nonpayable",
      "type": "function"
    },
    {
      "constant": false,
      "inputs": [
        {
          "internalType": "uint256",
          "name": "_id",
          "type": "uint256"
        }
      ],
      "name": "removeTask",
      "outputs": [
        {
          "internalType": "bool",
          "name": "",
          "type": "bool"
        }
      ],
      "payable": false,
      "stateMutability": "nonpayable",
      "type": "function"
    },
    {
      "constant": false,
      "inputs": [
        {
          "internalType": "uint256",
          "name": "_id",
          "type": "uint256"
        }
      ],
      "name": "markComplete",
      "outputs": [
        {
          "internalType": "bool",
          "name": "",
          "type": "bool"
        }
      ],
      "payable": false,
      "stateMutability": "nonpayable",
      "type": "function"
    }
  ],
  "bytecode": "0x60806040526000805534801561001457600080fd5b506100596040518060400160405280601981526020017f4465706c6f792074686520536d61727420436f6e74726163740000000000000081525061005f60201b60201c565b5061019e565b60008060008154809291906001019190505550604051806060016040528060005481526020018381526020016000151581525060016000805481526020019081526020016000206000820151816000015560208201518160010190805190602001906100cc9291906100f9565b5060408201518160020160006101000a81548160ff02191690831515021790555090505060019050919050565b828054600181600116156101000203166002900490600052602060002090601f016020900481019282601f1061013a57805160ff1916838001178555610168565b82800160010185558215610168579182015b8281111561016757825182559160200191906001019061014c565b5b5090506101759190610179565b5090565b61019b91905b8082111561019757600081600090555060010161017f565b5090565b90565b61096c806101ad6000396000f3fe608060405234801561001057600080fd5b50600436106100575760003560e01c806367067ed61461005c57806367238562146100a25780638d97767214610175578063b6cb58a51461022e578063c30841171461024c575b600080fd5b6100886004803603602081101561007257600080fd5b8101908080359060200190929190505050610292565b604051808215151515815260200191505060405180910390f35b61015b600480360360208110156100b857600080fd5b81019080803590602001906401000000008111156100d557600080fd5b8201836020820111156100e757600080fd5b8035906020019184600183028401116401000000008311171561010957600080fd5b91908080601f016020809104026020016040519081016040528093929190818152602001838380828437600081840152601f19601f8201169050808301925050505050505091929192905050506104c1565b604051808215151515815260200191505060405180910390f35b6101a16004803603602081101561018b57600080fd5b810190808035906020019092919050505061055b565b604051808481526020018060200183151515158152602001828103825284818151815260200191508051906020019080838360005b838110156101f15780820151818401526020810190506101d6565b50505050905090810190601f16801561021e5780820380516001836020036101000a031916815260200191505b5094505050505060405180910390f35b61023661062a565b6040518082815260200191505060405180910390f35b6102786004803603602081101561026257600080fd5b8101908080359060200190929190505050610630565b604051808215151515815260200191505060405180910390f35b600061029d826106a7565b156104bb5760006001600084815260200190815260200160002090507faeae189316b2319342bb7a6b41ac53db78ee35b56b2afa944f111ba0ba1735ea8160000154826001018360020160009054906101000a900460ff1660405180848152602001806020018315151515815260200182810382528481815460018160011615610100020316600290048152602001915080546001816001161561010002031660029004801561038e5780601f106103635761010080835404028352916020019161038e565b820191906000526020600020905b81548152906001019060200180831161037157829003601f168201915b505094505050505060405180910390a18060020160009054906101000a900460ff16158160020160006101000a81548160ff0219169083151502179055507f7a17aee38ea9fb6d7d8e5209babc7a27d51ca1c563b15fcded962cb4d37f28498160000154826001018360020160009054906101000a900460ff166040518084815260200180602001831515151581526020018281038252848181546001816001161561010002031660029004815260200191508054600181600116156101000203166002900480156104a15780601f10610476576101008083540402835291602001916104a1565b820191906000526020600020905b81548152906001019060200180831161048457829003601f168201915b505094505050505060405180910390a160019150506104bc565b5b919050565b600080600081548092919060010191905055506040518060600160405280600054815260200183815260200160001515815250600160008054815260200190815260200160002060008201518160000155602082015181600101908051906020019061052e929190610827565b5060408201518160020160006101000a81548160ff02191690831515021790555090505060019050919050565b6001602052806000526040600020600091509050806000015490806001018054600181600116156101000203166002900480601f01602080910402602001604051908101604052809291908181526020018280546001816001161561010002031660029004801561060d5780601f106105e25761010080835404028352916020019161060d565b820191906000526020600020905b8154815290600101906020018083116105f057829003601f168201915b5050505050908060020160009054906101000a900460ff16905083565b60005481565b600061063b826106a7565b1561069d576001600083815260200190815260200160002060008082016000905560018201600061066c91906108a7565b6002820160006101000a81549060ff02191690555050600080815480929190600190039190505550600190506106a2565b600090505b919050565b60006106b16108ef565b6001600084815260200190815260200160002060405180606001604052908160008201548152602001600182018054600181600116156101000203166002900480601f0160208091040260200160405190810160405280929190818152602001828054600181600116156101000203166002900480156107725780601f1061074757610100808354040283529160200191610772565b820191906000526020600020905b81548152906001019060200180831161075557829003601f168201915b505050505081526020016002820160009054906101000a900460ff16151515158152505090506000831180156107ab5750828160000151145b61081d576040517f08c379a00000000000000000000000000000000000000000000000000000000081526004018080602001828103825260138152602001807f5461736b20446f6573206e6f742065786973740000000000000000000000000081525060200191505060405180910390fd5b6001915050919050565b828054600181600116156101000203166002900490600052602060002090601f016020900481019282601f1061086857805160ff1916838001178555610896565b82800160010185558215610896579182015b8281111561089557825182559160200191906001019061087a565b5b5090506108a39190610912565b5090565b50805460018160011615610100020316600290046000825580601f106108cd57506108ec565b601f0160209004906000526020600020908101906108eb9190610912565b5b50565b604051806060016040528060008152602001606081526020016000151581525090565b61093491905b80821115610930576000816000905550600101610918565b5090565b9056fea265627a7a72315820dc6b60522262f1a8d230a41c65aa5ac5f8a7b384ee89d67af35335cf89f323b064736f6c63430005100032",
  "source": "// SPDX-License-Identifier: MIT\npragma solidity 0.5.16;\n\ncontract TodoList {\n    uint public taskCount = 0;\n\n    struct Task {\n        uint id;\n        string content;\n        bool completed;\n    }\n\n    mapping(uint => Task) public tasks;\n\n    constructor() public {\n        addTask(\"Deploy the Smart Contract\");\n    }\n\n    event Toggling(uint id, string content, bool completed);\n    event Toggled(uint id, string content, bool completed);\n\n    function addTask(string memory _content) public returns (bool) {\n        taskCount++;\n        tasks[taskCount] = Task(taskCount, _content, false);\n        return true;\n    }\n\n    function removeTask(uint _id) public returns (bool) {\n        if (taskExists(_id)) {\n            delete tasks[_id];\n            taskCount--;\n            return true;\n        }\n        return false;\n    }\n\n    function markComplete(uint _id) public returns (bool) {\n        if (taskExists(_id)) {\n            Task storage task = tasks[_id];\n            emit Toggling(task.id, task.content, task.completed);\n            task.completed = !task.completed;\n            emit Toggled(task.id, task.content, task.completed);\n\n            return true;\n        }\n    }\n\n    function taskExists(uint _id) private view returns (bool) {\n        Task memory task = tasks[_id];\n        require(_id > 0 && task.id == _id, \"Task Does not exist\");\n\n        return true;\n    }\n}\n",
  "sourcePath": "/Users/akshay/Developer/dapp_todo/todo_smart_contract/contracts/TodoList.sol",
  "compiler": {
    "name": "solc",
    "version": "0.5.16+commit.9c3226ce.Emscripten.clang"
  },
  "schemaVersion": "3.4.16",
  "updatedAt": "2024-05-18T06:44:45.497Z",
  "networkType": "ethereum",
  "devdoc": {
    "methods": {}
  },
  "userdoc": {
    "methods": {}
  }
}