{
  "contractName": "TodoList",
  "abi": [
    {
      "inputs": [],
      "payable": false,
      "stateMutability": "nonpayable",
      "type": "constructor"
    },
    {
      "anonymous": false,
      "inputs": [
        {
          "indexed": false,
          "internalType": "uint256",
          "name": "id",
          "type": "uint256"
        },
        {
          "indexed": false,
          "internalType": "string",
          "name": "message",
          "type": "string"
        }
      ],
      "name": "Removed",
      "type": "event"
    },
    {
      "anonymous": false,
      "inputs": [
        {
          "indexed": false,
          "internalType": "string",
          "name": "message",
          "type": "string"
        }
      ],
      "name": "TaskAdded",
      "type": "event"
    },
    {
      "anonymous": false,
      "inputs": [
        {
          "indexed": false,
          "internalType": "uint256",
          "name": "id",
          "type": "uint256"
        },
        {
          "indexed": false,
          "internalType": "string",
          "name": "content",
          "type": "string"
        },
        {
          "indexed": false,
          "internalType": "bool",
          "name": "completed",
          "type": "bool"
        }
      ],
      "name": "Toggled",
      "type": "event"
    },
    {
      "anonymous": false,
      "inputs": [
        {
          "indexed": false,
          "internalType": "uint256",
          "name": "id",
          "type": "uint256"
        },
        {
          "indexed": false,
          "internalType": "string",
          "name": "content",
          "type": "string"
        },
        {
          "indexed": false,
          "internalType": "bool",
          "name": "completed",
          "type": "bool"
        }
      ],
      "name": "Toggling",
      "type": "event"
    },
    {
      "constant": true,
      "inputs": [],
      "name": "taskCount",
      "outputs": [
        {
          "internalType": "uint256",
          "name": "",
          "type": "uint256"
        }
      ],
      "payable": false,
      "stateMutability": "view",
      "type": "function"
    },
    {
      "constant": true,
      "inputs": [
        {
          "internalType": "uint256",
          "name": "",
          "type": "uint256"
        }
      ],
      "name": "tasks",
      "outputs": [
        {
          "internalType": "uint256",
          "name": "id",
          "type": "uint256"
        },
        {
          "internalType": "string",
          "name": "content",
          "type": "string"
        },
        {
          "internalType": "bool",
          "name": "completed",
          "type": "bool"
        }
      ],
      "payable": false,
      "stateMutability": "view",
      "type": "function"
    },
    {
      "constant": false,
      "inputs": [
        {
          "internalType": "string",
          "name": "_content",
          "type": "string"
        }
      ],
      "name": "addTask",
      "outputs": [],
      "payable": false,
      "stateMutability": "nonpayable",
      "type": "function"
    },
    {
      "constant": false,
      "inputs": [
        {
          "internalType": "uint256",
          "name": "_id",
          "type": "uint256"
        }
      ],
      "name": "removeTask",
      "outputs": [],
      "payable": false,
      "stateMutability": "nonpayable",
      "type": "function"
    },
    {
      "constant": false,
      "inputs": [
        {
          "internalType": "uint256",
          "name": "_id",
          "type": "uint256"
        }
      ],
      "name": "markComplete",
      "outputs": [],
      "payable": false,
      "stateMutability": "nonpayable",
      "type": "function"
    },
    {
      "constant": true,
      "inputs": [],
      "name": "getTaskIds",
      "outputs": [
        {
          "internalType": "uint256[]",
          "name": "",
          "type": "uint256[]"
        }
      ],
      "payable": false,
      "stateMutability": "view",
      "type": "function"
    }
  ],
  "bytecode": "0x60806040526000805534801561001457600080fd5b506100596040518060400160405280601981526020017f4465706c6f792074686520536d61727420436f6e74726163740000000000000081525061005e60201b60201c565b61022b565b6000808154809291906001019190505550604051806060016040528060005481526020018281526020016000151581525060026000805481526020019081526020016000206000820151816000015560208201518160010190805190602001906100c9929190610186565b5060408201518160020160006101000a81548160ff021916908315150217905550905050600160005490806001815401808255809150509060018203906000526020600020016000909192909190915055507f9c5e28549cab51b5d02e7eee4fd0f6d00b70fa92e37de0a00d5b6a3c1400a9276040518080602001828103825260198152602001807f41204e6577205461736b20686173206265656e2061646465640000000000000081525060200191505060405180910390a150565b828054600181600116156101000203166002900490600052602060002090601f016020900481019282601f106101c757805160ff19168380011785556101f5565b828001600101855582156101f5579182015b828111156101f45782518255916020019190600101906101d9565b5b5090506102029190610206565b5090565b61022891905b8082111561022457600081600090555060010161020c565b5090565b90565b610bd98061023a6000396000f3fe608060405234801561001057600080fd5b50600436106100625760003560e01c806367067ed61461006757806367238562146100955780638d97767214610150578063b6cb58a514610209578063bcd1480514610227578063c308411714610286575b600080fd5b6100936004803603602081101561007d57600080fd5b81019080803590602001909291905050506102b4565b005b61014e600480360360208110156100ab57600080fd5b81019080803590602001906401000000008111156100c857600080fd5b8201836020820111156100da57600080fd5b803590602001918460018302840111640100000000831117156100fc57600080fd5b91908080601f016020809104026020016040519081016040528093929190818152602001838380828437600081840152601f19601f8201169050808301925050505050505091929192905050506104d6565b005b61017c6004803603602081101561016657600080fd5b81019080803590602001909291905050506105fe565b604051808481526020018060200183151515158152602001828103825284818151815260200191508051906020019080838360005b838110156101cc5780820151818401526020810190506101b1565b50505050905090810190601f1680156101f95780820380516001836020036101000a031916815260200191505b5094505050505060405180910390f35b6102116106cd565b6040518082815260200191505060405180910390f35b61022f6106d3565b6040518080602001828103825283818151815260200191508051906020019060200280838360005b83811015610272578082015181840152602081019050610257565b505050509050019250505060405180910390f35b6102b26004803603602081101561029c57600080fd5b8101908080359060200190929190505050610796565b005b6102bd816108bc565b156104d35760006002600083815260200190815260200160002090507faeae189316b2319342bb7a6b41ac53db78ee35b56b2afa944f111ba0ba1735ea8160000154826001018360020160009054906101000a900460ff166040518084815260200180602001831515151581526020018281038252848181546001816001161561010002031660029004815260200191508054600181600116156101000203166002900480156103ae5780601f10610383576101008083540402835291602001916103ae565b820191906000526020600020905b81548152906001019060200180831161039157829003601f168201915b505094505050505060405180910390a18060020160009054906101000a900460ff16158160020160006101000a81548160ff0219169083151502179055507f7a17aee38ea9fb6d7d8e5209babc7a27d51ca1c563b15fcded962cb4d37f28498160000154826001018360020160009054906101000a900460ff166040518084815260200180602001831515151581526020018281038252848181546001816001161561010002031660029004815260200191508054600181600116156101000203166002900480156104c15780601f10610496576101008083540402835291602001916104c1565b820191906000526020600020905b8154815290600101906020018083116104a457829003601f168201915b505094505050505060405180910390a1505b50565b600080815480929190600101919050555060405180606001604052806000548152602001828152602001600015158152506002600080548152602001908152602001600020600082015181600001556020820151816001019080519060200190610541929190610a94565b5060408201518160020160006101000a81548160ff021916908315150217905550905050600160005490806001815401808255809150509060018203906000526020600020016000909192909190915055507f9c5e28549cab51b5d02e7eee4fd0f6d00b70fa92e37de0a00d5b6a3c1400a9276040518080602001828103825260198152602001807f41204e6577205461736b20686173206265656e2061646465640000000000000081525060200191505060405180910390a150565b6002602052806000526040600020600091509050806000015490806001018054600181600116156101000203166002900480601f0160208091040260200160405190810160405280929190818152602001828054600181600116156101000203166002900480156106b05780601f10610685576101008083540402835291602001916106b0565b820191906000526020600020905b81548152906001019060200180831161069357829003601f168201915b5050505050908060020160009054906101000a900460ff16905083565b60005481565b6060806106de610a3c565b60405190808252806020026020018201604052801561070c5781602001602082028038833980820191505090505b509050600080905060008090505b60018054905081101561078d5760006001828154811061073657fe5b90600052602060002001541115610780576001818154811061075457fe5b906000526020600020015483838151811061076b57fe5b60200260200101818152505081806001019250505b808060010191505061071a565b50819250505090565b61079f816108bc565b156108b957600260008281526020019081526020016000206000808201600090556001820160006107d09190610b14565b6002820160006101000a81549060ff0219169055505060008090505b60018054905081101561084757816001828154811061080757fe5b9060005260206000200154141561083a5760006001828154811061082757fe5b9060005260206000200181905550610847565b80806001019150506107ec565b507f0b8bf4621fe36dd4f61dc2cad819c596db714643bad8cab4c4a2d04f0340e6098160405180828152602001806020018281038252600c8152602001807f5461736b2072656d6f76656400000000000000000000000000000000000000008152506020019250505060405180910390a15b50565b60006108c6610b5c565b6002600084815260200190815260200160002060405180606001604052908160008201548152602001600182018054600181600116156101000203166002900480601f0160208091040260200160405190810160405280929190818152602001828054600181600116156101000203166002900480156109875780601f1061095c57610100808354040283529160200191610987565b820191906000526020600020905b81548152906001019060200180831161096a57829003601f168201915b505050505081526020016002820160009054906101000a900460ff16151515158152505090506000831180156109c05750828160000151145b610a32576040517f08c379a00000000000000000000000000000000000000000000000000000000081526004018080602001828103825260138152602001807f5461736b20446f6573206e6f742065786973740000000000000000000000000081525060200191505060405180910390fd5b6001915050919050565b6000806000905060008090505b600180549050811015610a8c57600060018281548110610a6557fe5b90600052602060002001541115610a7f5781806001019250505b8080600101915050610a49565b508091505090565b828054600181600116156101000203166002900490600052602060002090601f016020900481019282601f10610ad557805160ff1916838001178555610b03565b82800160010185558215610b03579182015b82811115610b02578251825591602001919060010190610ae7565b5b509050610b109190610b7f565b5090565b50805460018160011615610100020316600290046000825580601f10610b3a5750610b59565b601f016020900490600052602060002090810190610b589190610b7f565b5b50565b604051806060016040528060008152602001606081526020016000151581525090565b610ba191905b80821115610b9d576000816000905550600101610b85565b5090565b9056fea265627a7a7231582082dbd4ee1955ddc0512afe8d78e8d98970421610e36dde40a9e9c89c08f0ee8764736f6c63430005100032",
  "source": "// SPDX-License-Identifier: MIT\npragma solidity 0.5.16;\n\n// Todo: When redusing count the data gets invalidated\ncontract TodoList {\n    uint public taskCount = 0;\n    uint[] private availableTaskIds;\n    mapping(uint => Task) public tasks;\n\n    struct Task {\n        uint id;\n        string content;\n        bool completed;\n    }\n\n    event TaskAdded(string message);\n    event Toggling(uint id, string content, bool completed);\n    event Toggled(uint id, string content, bool completed);\n    event Removed(uint id, string message);\n\n    constructor() public {\n        addTask(\"Deploy the Smart Contract\");\n    }\n\n    function addTask(string memory _content) public {\n        taskCount++;\n        tasks[taskCount] = Task(taskCount, _content, false);\n        availableTaskIds.push(taskCount);\n        emit TaskAdded(\"A New Task has been added\");\n    }\n\n    function removeTask(uint _id) public {\n        if (taskExists(_id)) {\n            delete tasks[_id];\n            for (uint i = 0; i < availableTaskIds.length; i++) {\n                if (availableTaskIds[i] == _id) {\n                    availableTaskIds[i] = 0;\n                    break;\n                }\n            }\n            emit Removed(_id, \"Task removed\");\n        }\n    }\n\n    function markComplete(uint _id) public {\n        if (taskExists(_id)) {\n            Task storage task = tasks[_id];\n            emit Toggling(task.id, task.content, task.completed);\n            task.completed = !task.completed;\n            emit Toggled(task.id, task.content, task.completed);\n        }\n    }\n\n    function taskExists(uint _id) private view returns (bool) {\n        Task memory task = tasks[_id];\n        require(_id > 0 && task.id == _id, \"Task Does not exist\");\n\n        return true;\n    }\n\n    function getTaskCount() private view returns (uint) {\n        uint _taskCount = 0;\n        for (uint i = 0; i < availableTaskIds.length; i++) {\n            if (availableTaskIds[i] > 0) {\n                _taskCount++;\n            }\n        }\n\n        return _taskCount;\n    }\n\n    function getTaskIds() public view returns (uint[] memory) {\n        uint[] memory ids = new uint[](getTaskCount());\n        uint index = 0;\n        for (uint i = 0; i < availableTaskIds.length; i++) {\n            if (availableTaskIds[i] > 0) {\n                ids[index] = availableTaskIds[i];\n                index++;\n            }\n        }\n        return ids;\n    }\n}\n",
  "sourcePath": "/Users/akshay/Developer/dapp_todo/todo_smart_contract/contracts/TodoList.sol",
  "compiler": {
    "name": "solc",
    "version": "0.5.16+commit.9c3226ce.Emscripten.clang"
  },
  "schemaVersion": "3.4.16",
  "updatedAt": "2024-05-23T17:34:17.439Z",
  "networkType": "ethereum",
  "devdoc": {
    "methods": {}
  },
  "userdoc": {
    "methods": {}
  }
}